:0400000035EF00F0E8
:0C000800D9CF14F0DACF15F097EF0DF00F
:10001800D8CF08F0E8CF09F0E0CF0AF0D9CF0BF03D
:10002800DACF0CF0A0B2A1A211D0342A000E3522EA
:1000380036223722382A39223A223B2238B009ECB4
:1000480005F0D10EB36ED50EB26EA1920CC0DAFFD8
:100058000BC0D9FF0AC0E0FF09C0E8FF08C0D8FFFD
:1000680010008BEF0BF00001B06B38D03F0E176E0D
:10007800B20E166EB00EDDEC0CF0A0D03F0E176E6F
:100088009E0E166EB00EDDEC0CF098D03F0E176E7B
:10009800990E166EB00EDDEC0CF090D03F0E176E78
:1000A800D00E166EB00EDDEC0CF088D03F0E176E39
:1000B800A80E166EB00EDDEC0CF080D03F0E176E59
:1000C800C60E166EB00EDDEC0CF078D03F0E176E33
:1000D800B70E166EB00EDDEC0CF070D07051010A40
:1000E800C5E0030ACBE0010AD1E0070AD7E0010A1C
:1000F800DDE0030AE3E0010AE9E060D03F0E176E95
:10010800AD0E166EB00EDDEC0CF071D03F0E176E12
:100118008F0E166EB00EDDEC0CF069D03F0E176E28
:10012800BC0E166EB00EDDEC0CF061D03F0E176EF3
:10013800C10E166EB00EDDEC0CF059D03F0E176EE6
:10014800DA0E166EB00EDDEC0CF051D03F0E176EC5
:100158006E0E166EB00EDDEC0CF049D03F0E176E29
:100168007A0E166EB00EDDEC0CF041D03F0E176E15
:10017800A30E166EB00EDDEC0CF039D03F0E176EE4
:10018800740E166EB00EDDEC0CF031D03F0E176E0B
:10019800CB0E166EB00EDDEC0CF029D03F0E176EAC
:1001A800D50E166EB00EDDEC0CF021D03F0E176E9A
:1001B800940E166EB00EDDEC0CF019D07251010AD7
:1001C8009DE0030AA3E0010AA9E0070AAFE0010ADB
:1001D800B5E0030ABBE0010AC1E00F0AC7E0010A63
:1001E800CDE0030AD3E0010AD9E0070ADFE00A0EEE
:1001F800715D02E2C36B07D00A0E166E71512DECC9
:100208000DF00001C36FC351F60DF3507125C06F97
:10021800C35108E0176AB00E166E47EC0CF04BD8C5
:10022800C3513ED8176AB00E166E47EC0CF043D88F
:10023800C05136D8C30508E13F0E176EF30E166E8F
:10024800B00EDDEC0CF027D0C00508E13F0E176EAC
:10025800F70E166EB00EDDEC0CF01DD0C051020A80
:1002680008E13F0E176EEB0E166EB00EDDEC0CF0CB
:1002780012D0C051030A08E13F0E176EEF0E166E3A
:10028800B00EDDEC0CF007D03F0E176EF30E166EB5
:10029800B00EDDEC0CF0256AB00E246E69EF01F0AB
:1002A800300FDF6EC1C033F0332A3350B00FD96E30
:1002B800DA6ADF6A120016C0C1F017C0C2F0000186
:1002C800C151B00FD96EDA6A1200306A316A2C6AED
:1002D8002E6A2F6A2D6A25C017F024C016F047EC45
:1002E8000CF016502B6E3C6A3E6A3D6A79D02D663A
:1002F80042D02C502424266E000E2520276E26C0BE
:10030800F6FF27C0F7FFF86A020EF76403D008006B
:10031800F55005D0F6CFE1FFF7CFE2FFE750306E9A
:10032800316A2C2A3150301005E10E0E2D6E2E6ADE
:100338002F6A21D030C026F031C027F0D890263659
:100348002736D89026362736800E26242E6EFF0EA6
:1003580027202F6E030E2E24266E000E2F20276EC8
:10036800ED0E2624F66E3D0E2720F76E0800F5CF19
:1003780028F028282D6E326A32500001820FD96E7B
:10038800DA6A3250810FE16EE26ADFCFE7FF322A84
:100398000D0E3264F1D7ED0E2E24F66E3D0E2F2091
:1003A800F76E0800F5CF26F0D89026348F6F3150BD
:1003B800301008E0020E2D6403D02E4A2F2A02D0F6
:1003C8002E6A2F6A2D06176A640E166E63EC0BF000
:1003D8002FEC03F042A404D0BCEC0DF0492A120023
:1003E8002B50266E276A262A000E27222C50286EAC
:1003F800296A2950800A2A6E2650285C2750800ACC
:100408002A58D8B0120073D73F0E256E4B0E246EB3
:1004180069EC01F0176A640E166E63EC0BF03F0E80
:100428002D6E8A0E2C6E010E2E6E0C0E2F6E3BEC6E
:1004380006F06F6F3F0E2D6EDF0E2C6E2E6A3B0E90
:100448002F6E3BEC06F06E6F6D6B3F0E2D6E850EBA
:100458002C6E2E6A630E2F6E3BEC06F0736F3F0E08
:10046800266EE30E256E010E276E0C0E286E3E0ECC
:100478002A6EF70E296EC9EC07F00001726F07D0DB
:100488001F0E03D01C0E01D01E0EB86F19D072516A
:10049800010AF6E0030AF6E0010AF2E0070AF4E0CE
:1004A800010AEEE0030AF0E0010AEAE00F0AE8E0D8
:1004B800010AEAE0030AE4E0010AE6E0070AE0E0EC
:1004C8007251020A1BE173C016F0176A010E196E09
:1004D800900E186EDAEC09F0175016100CE073C085
:1004E80033F0030E33160AE1640E166E735184EC72
:1004F8000DF0000903E01D0E0001B86F3F0E2D6ED0
:10050800800E2C6E010E2E6EB8C02FF03BEC06F05C
:10051800716F3F0E266EE70E256E010E276E070ED1
:10052800286E3F0E2A6E2B0E296EC9EC07F00001CB
:10053800706F010E176E3F0E196E640E186E000E66
:10054800AEEF03F02B6A28C01CF029C01DF0030E83
:100558001F6EE80E1E6EFEEC0BF01D501C1017E00F
:100568002A50D96EDA6A030E1F6EE80E1E6E28C076
:100578001CF029C01DF0FEEC0BF01CC023F01DC0C0
:1005880024F0266A0A0E256E67EC0CF05FD828C0A6
:100598001CF029C01DF01F6A640E1E6EFEEC0BF0E5
:1005A8001D501C1002E12B5017E02A502B24D96E45
:1005B800DA6A1F6A640E1E6E28C01CF029C01DF07E
:1005C800FEEC0BF01CC023F01DC024F0266A0A0EB6
:1005D800256E67EC0CF03AD828C01CF029C01DF035
:1005E8001F6A0A0E1E6EFEEC0BF01D501C1002E175
:1005F8002B5017E02A502B24D96EDA6A1F6A0A0E8C
:100608001E6E28C01CF029C01DF0FEEC0BF01CC0AB
:1006180023F01DC024F0266A0A0E256E67EC0CF044
:1006280015D82A502B24D96EDA6A28C023F029C09D
:1006380024F0266A0A0E256E67EC0CF007D82A50BB
:100648002B24D96EDA6A000EDF6E000C2350300FAF
:10065800DF6E2B2A12003C6619D082B417D0CF6AFD
:10066800CE6A02D082B4FBD7E80ECE5C030ECF5818
:10067800F9E3CF6ACE6A02D082A4FBD7E80ECE5C3B
:10068800030ECF58F9E3010E3C6E0FD03C04D8B4EA
:1006980082A40BD0CF6ACE6A02D082A4FBD7E80E20
:1006A800CE5C030ECF58F9E33C6A3E6619D082B09F
:1006B80017D0CF6ACE6A02D082B0FBD7E80ECE5CE4
:1006C800030ECF58F9E3CF6ACE6A02D082A0FBD7D7
:1006D800E80ECE5C030ECF58F9E3010E3E6E0FD044
:1006E8003E04D8B482A00BD0CF6ACE6A02D082A0D2
:1006F800FBD7E80ECE5C030ECF58F9E33E6A3D66A1
:1007080019D082B217D0CF6ACE6A02D082B2FBD794
:10071800E80ECE5C030ECF58F9E3CF6ACE6A02D05A
:1007280082A2FBD7E80ECE5C030ECF58F9E3010E88
:100738003D6E010C3D04D8B482A21200CF6ACE6A85
:1007480002D082A2FBD7E80ECE5C030ECF58F9E3A5
:100758003D6A12001D6E226A236A1E6A206A216A97
:100768001F6A33EC0EF01DC024F00E0E246401D075
:100778000E0C1F6642D01E5018241A6E000E192047
:100788001B6E1AC0F6FF1BC0F7FFF86A020EF7646B
:1007980003D00800F55005D0F6CFE1FFF7CFE2FF10
:1007A800E750226E236A1E2A2350221005E10E0EFE
:1007B8001F6E206A216A21D022C01AF023C01BF0C4
:1007C800D8901A361B36D8901A361B36800E1A2443
:1007D800206EFF0E1B20216E030E20241A6E000EC1
:1007E80021201B6EED0E1A24F66E3D0E1B20F76EAF
:1007F8000800F5CF1CF01C281F6E24500001810F43
:10080800D96EDA6A17C01AF0ED0E2024F66E3D0E86
:100818002120F76E0800F5CF1BF01A2A02D0D890D5
:100828001B361A2EFCD71B50DF6E2350221008E00F
:10083800020E1F6403D0204A212A02D0206A216AAE
:100848001F06242A92D75FD00001A0A506D0BCECD1
:100858000DF000014872010E416E42A216D000014F
:100868006351B96F6451BA6FBB6BBC6B3850B95DDB
:100878003950BA593A50BB593B50BC5906E208ECBA
:1008880002F09EEC08F0BCEF0DF042B207D0E80E83
:1008980038240001636F030E3920646F42A403D02B
:1008A800BCEC0DF03ED80001A6A51200BCEC0DF082
:1008B80000014870010E416E010C42A403D0BCEC4B
:1008C8000DF02FD80001A6A51200BCEC0DF0F2D750
:1008D80042A41200BCEC0DF0492AECD742A403D084
:1008E800BCEC0DF01ED80001A0A505D0BCEC0DF0A5
:1008F8004884010E416E0001A6A51200BCEC0DF063
:1009080000014894D7D74950010A9EE0030AD8B499
:100918001200010AD2E0070ADBE0010ADFE0030A5D
:100928001200492A010E416E010C415007E0416A4C
:10093800000167696669656933EC0EF02DEC07F014
:10094800000167516D6303D04150D8B412000A0EFC
:10095800166E6D512DEC0DF04DD8F5CF8CF08CC086
:100968008BF00A0E166E6D5184EC0DF043D8F5CF5E
:100978008FF08FC08EF06DC067F0665120EE6EF07C
:10098800DF6203D04150D8B412000A0E166E6E51C1
:100998002DEC0DF02FD8F5CF87F087C086F00A0E22
:1009A800166E6E5184EC0DF025D8F5CF8AF08AC00A
:1009B80089F06EC066F0655120EE6FF0DF6203D0FB
:1009C8004150D8B412000A0E166E6F512DEC0DF07E
:1009D80011D8F5CF82F082C081F00A0E166E6F51E1
:1009E80084EC0DF007D8F5CF85F085C084F06FC092
:1009F80065F012001D6E1E6AED0E1D24F66E3E0E89
:100A08001E20F76E080000011200010E82B4000ECD
:100A1800016E000160515AD8010E82B2000E016EBB
:100A2800615154D8010E82B0000E016E62514ED849
:100A3800076A075044D8040ED926DECF01F0DDCF6F
:100A480002F001C003F002C004F0000E04BEFF0E65
:100A5800056E066E0350385C0450395805503A58F4
:100A680006503B5827E307502AD8DFA015D0075077
:100A780026D8DFB211D0075022D8DF821E0E3824C4
:100A8800016E000E3920026E075019D8040ED926BF
:100A980001C0DEFF02C0DDFF075011D8DFB00AD069
:100AA80007500DD8DFA206D0075009D8DF840750B9
:100AB80006D8DF92072A020E0764BBD7020C600F24
:100AC800D96EDA6ADF50D96EDA6A1200D96EDA6A3C
:100AD800DF500118FE0B0118DF6E12000001C46B15
:100AE80033EC0EF041504CE02DEC07F0DEEC06F054
:100AF800416A46D03F0E256E580E246E69EC01F00F
:100B0800010E34D03FC028F0296AAC0E2A6EA6EC3C
:100B180002F03F0E176EFB0E166E0001AC0EDDECF8
:100B28000CF0256AAC0E246E69EC01F0020E1ED0A2
:100B38003F0E256E5F0E246E69EC01F0030E16D091
:100B48006EC01AF0750E1B6E6F518EEC06F0256A9A
:100B58000001750E246E69EC01F0040E07D03F0EFB
:100B6800256E690E246E69EC01F0050E0001C46F54
:100B780014D037EC00F00001C46B010E416E0DD0AB
:100B88000001C451B7E0010ABDE0030AD1E0010A3F
:100B9800D7E0070AE4E0010AECE04950020AA2E0C3
:100BA800010E416E010C286E276A2D6A296A2A688F
:100BB8002B682A6602D02B504EE028502A242C6E2F
:100BC80025502B242D6E2CBE32D02C50800A266E38
:100BD800080E800A265CD8A02DBE29D02D50800A88
:100BE800710F25E22ED0296A32D0010E2FD02CAEFB
:100BF80003D0070E2C6E05D02C50800A780FD8B081
:100C08002C6A2DAE03D00E0E2D6E05D02D50800A05
:100C1800710FD8B02D6A2DC01EF02C5016EC0AF0BA
:100C280015D025C01EF0285016EC0AF00FD0000190
:100C3800C551D9E0010AD9E0030AD9E0010AF1E077
:100C480006D02DC01EF02C5016EC0AF0296ED89054
:100C58002736295027122B2A2B50800A7E0FA9E30A
:100C68002A2A2A50800A7E0FA3E327501200000187
:100C7800B56B2EC0B7F0B6693C6A3E6A3D6A010E94
:100C8800176E2DC019F02CC018F0000EAEEC03F052
:100C9800010E176EF40E166E63EC0BF036D02FECC7
:100CA80003F03C0407E10001B72BB7512F5CD8A033
:100CB8002EC0B7F03E0408E10001B7512E5C02E2F5
:100CC800B70702D02FC0B7F03D0403E1010E0001C1
:100CD800B56F0001B651B71918E0B7C028F0296AF6
:100CE800B00E2A6EA6EC02F0010E176E196A00010A
:100CF800B00E186E040EAEEC03F0010E176EF40E73
:100D0800166E63EC0BF0B7C0B6F00001B551C7E042
:100D1800B75112001C6E0A0E166E1C502DEC0DF009
:100D2800000916E01C500B0A0BE11B50D96EDA6A59
:100D3800220EDF6E1B50D96EDA6AD92A220E10D025
:100D48001B50D96EDA6A210E2CD884EC0DF007D02E
:100D58001B50D96EDA6A200E24D884EC0DF0300FBF
:100D6800DF6E1B50D96EDA6A030ED9260A0E166E8C
:100D78001A502DEC0DF0300FDF6E1B50D96EDA6A69
:100D8800040ED9260A0E166E1A5084EC0DF0300F98
:100D9800DF6E1B50D96EDA6A050ED926000EDF6E9B
:100DA800000CDF6E1B50D96EDA6AD92A0A0E166E4D
:100DB8001C50120080EC0EF0910E11EC0BF0010E9D
:100DC8004CEC0AF0286E296A000E4CEC0AF02A6EE8
:100DD8002B6A9BEC0EF02AC023F02BC024F0050EE2
:100DE800256ED89024322332252EFBD728C026F032
:100DF80029C027F0D89026362736D89026362736A9
:100E0800D8902636273623502624166E24502720BD
:100E1800176E196A7D0E186E71EC0DF016C01CF075
:100E280017C01DF0030E1F6EE80E1E6EFEEC0BF0D1
:100E38001C503F6E3F50B40DF3CF16F0F4CF17F0AF
:100E4800196A640E186E13EC08F01650200F406EE5
:100E5800120080EC0EF0D00E11EC0BF0000E11EC2D
:100E68000BF080EC0EF0D10E11EC0BF0010E4CECF7
:100E78000AF01C6E1C504BEC0EF000016D6F010E59
:100E88004CEC0AF01C6E1C504BEC0EF000016E6F1F
:100E9800010E4CEC0AF01C6E1C501F0B4BEC0EF0B4
:100EA80000016F6F010E4CEC0AF01C6E1C504BECED
:100EB8000EF00001706F010E4CEC0AF01C6E1C5015
:100EC8004BEC0EF00001716F010E4CEC0AF01C6E39
:100ED8001C504BEC0EF00001726F000E4CEC0AF047
:100EE8001C6E1C504BEC0EF00001736F9BEF0EF064
:100EF800415006E033EC0EF0489200014890416AF8
:100F08002DEC07F000016A516D6303D04150D8B44D
:100F1800120048A212D071C01AF000017B0E1B6E9D
:100F280072518EEC06F0010E176E196A00017B0EE5
:100F3800186E000EAEEC03F019D000016DB148A098
:100F480002D0200E01D03A0E0001776F6EC01AF061
:100F5800750E1B6E6F518EEC06F0010E176E196A36
:100F68000001750E186E000EAEEC03F06DC025F092
:100F7800D8902532D89025322550810FD96EDA6A5B
:100F8800000EDB8E6DC06AF0000C27C02DF02B68B8
:100F98002C6A3C6A3E6A3D6A010E176E26C019F03B
:100FA80025C018F0000EAEEC03F0010E176EF40E1B
:100FB800166E63EC0BF02FD02FEC03F03C0406E127
:100FC8002D2A2D50285CD8A027C02DF03E0407E11B
:100FD8002D50275C02E22D0602D028C02DF03D04DA
:100FE80002E1010E2C6E2B502D1815E0010E176E24
:100FF8002D50040DF3502924186EF4502A20196E30
:10100800020EAEEC03F0010E176EF40E166E63ECD2
:101018000BF02DC02BF02C50CFE02D5012001B6A86
:1010280019503FD8D8B4185C06E2186C191ED8B00D
:10103800192A010E1B6E175034D8D8B4165C06E274
:10104800166C171ED8B0172A010E1B1A1C6A1D6AC7
:10105800195018101BE0010E1A6E04D0D8901836DB
:1010680019361A2A19AEFAD7D8901C361D361850D8
:10107800165C1950175805E31850165E1950175A80
:101088001C80D890193218321A2EEED71B5004E063
:101098001C6C1D1ED8B01D2A1CC016F01DC017F0F0
:1010A8001200800AF36E800EF35C000C13EC0DF056
:1010B80093EC0EF03BEC0BF0A4EC0CF0000E176A6E
:1010C800166A8AEC0EF0496E495003E0060E496430
:1010D80015D0010E496E12D07CEC07F01CD072ECD2
:1010E80005F019D0E0EC0AF016D099EC04F013D012
:1010F8009EEC09F010D021EC09F00DD04950010AFE
:10110800EBE0030AECE0010AEDE0070AEEE0010A71
:10111800EFE0030AF0E027EC04F04A504918D4E065
:10112800000E176A166A49C018F0F9EC0CF049C0AD
:101138004AF0CAD780EC0EF0D00E11EC0BF0000E7E
:1011480011EC0BF000016D51F0EC0DF01C6E1C5011
:1011580011EC0BF000016E51F0EC0DF01C6E1C5000
:1011680011EC0BF000016F51F0EC0DF01C6E1C50EF
:10117800400911EC0BF000017051F0EC0DF01C6E01
:101188001C5011EC0BF000017151F0EC0DF01C6ECD
:101198001C5011EC0BF000017251F0EC0DF01C6EBC
:1011A8001C5011EC0BF000017351F0EC0DF01C6EAB
:1011B8001C5011EC0BF09BEF0EF0306A326A336A68
:1011C80033C025F03250D7EC05F02E6E2E506CEC63
:1011D8000EF0316E33C01EF0325016EC0AF02F6E4E
:1011E8002F5013E0010E316403D0030E316406D092
:1011F80033C01EF03250B2EC0BF015D033C01EF0E5
:101208003250D9EC0BF0302A0ED03150030A06E1E7
:1012180033C01EF03250D9EC0BF0F5D733C01EF0B6
:101228003250B2EC0BF0332A0E0E3364C9D7322A8F
:10123800070E3264C4D7305012003C6A3E6A3D6AD9
:1012480000EC0EF0E1EC08F00009D8B47EEC0AF0EE
:101258006B513C0A19E16B6B6C29030B6C6F0CD05A
:1012680060EC09F011D0C1EC0CF00ED0AAEC0DF036
:101278000BD07EEC0AF008D06C51F2E0010AF3E0E2
:10128800030AF4E0010AF5E06B2BE0EC0DF0176AB5
:10129800C80E166E63EC0BF02FEC03F03D0402E170
:1012A800010E496E3C0403E13C0E00016B6F49508E
:1012B800060AD8A41200C6D734C016F035C017F0F5
:1012C80036C018F037C019F0060E1A6E000E1B6AE9
:1012D8001C6A1D6AAFEC0AF016C022F017C023F092
:1012E80018C024F019C025F02250266E0D0E166E77
:1012F800D65084EC0DF0276E27C01EF02650020F42
:10130800D9EC0BF027281E6E2650020FD9EC0BF0F3
:101318002750020F1E6E2650020FD9EC0BF02750F3
:10132800020F1E6E2628D9EC0BF027281E6E2650B9
:10133800D9EF0BF0415003E0416A0001696BDEEC24
:1013480006F0000169513F6203D04150D8B4120041
:1013580048A411D040C028F0296A0001AC0E2A6EBA
:10136800A6EC02F03F0E176EFD0E166E0001AC0ED5
:10137800DDEC0CF010D03FC028F0296A0001AC0E5B
:101388002A6EA6EC02F03F0E176EFB0E166E0001D9
:10139800AC0EDDEC0CF0020E176E196AAC0E186E6E
:1013A800020EAEEC03F03FC069F012001B6A175042
:1013B80055EC08F0D8B4165C06E2166C171ED8B0C7
:1013C800172A010E1B6E195055EC08F0D8B4185C9A
:1013D80004E2186C191ED8B0192A1950181017E011
:1013E800010E1A6E04D0D890183619361A2A19AE7A
:1013F800FAD71850165C1950175804E31850165E9F
:101408001950175AD890193218321A2EF2D71B5081
:1014180004E0166C171ED8B0172A16C016F017C0AD
:1014280017F01200246E1E50080DF35024241F6E6E
:10143800070E1F161E50080D2450F324166E000EBA
:10144800F420176E196A080E186E13EC08F016507F
:101458000001810FD96EDA6ADF50206E1E50080D28
:10146800F3502424216E070E2116010E226E212A24
:1014780002D0D8902236212EFCD722502014236E79
:101488001F2A02D0D89023321F2EFCD723501200D7
:10149800196E1A6A93881B6A0A0EA3EC0EF0D8908C
:1014A8001A36938C81ACFED70A0EA3EC0EF081B8E5
:1014B8001A2A0A0EA3EC0EF0939C190EA3EC0EF058
:1014C8001B2A070E1B64E8D7195002E0939801D035
:1014D80093880A0EA3EC0EF0938C190EA3EC0EF071
:1014E800939C190EA3EC0EF093880A0EA3EC0EF051
:1014F8001A501200286AC282C2B2FED7C3CF26F0A1
:10150800276AC4502726CE502626CF502722296A7C
:1015180029C023F026C024F027C025F0232A03D0B1
:10152800D89025322432232EFBD724A006D029C0F8
:101538001EF02850D9EC0BF005D029C01EF0285019
:10154800B2EC0BF0292A0E0E2964E2D7282A070EDE
:101558002864D1D7070C1D501A101B101C1023E04B
:10156800010E1E6E06D0D8901A361B361C361D3654
:101578001E2A1DAEF8D71A50165C1B5017581C505F
:1015880018581D50195808E31A50165E1B50175A60
:101598001C50185A1D50195AD8901D321C321B3233
:1015A8001A321E2EE8D716C016F017C017F018C04A
:1015B80018F019C019F012002DEC07F0000168515D
:1015C8006D6303D04150D8B412006D5102E0415010
:1015D80011E06EC01AF0750E1B6E6F518EEC06F09E
:1015E800176A196A0001750E186E000EAEEC03F04A
:1015F800416A10D06DC028F0296AAC0E2A6EA6EC9C
:1016080002F0010E176E196A0001AC0E186E040E76
:10161800AEEC03F06DC068F01200196E1B6A19AECB
:1016280002D0938801D093980A0EA3EC0EF0938C05
:10163800190EA3EC0EF0939C190EA3EC0EF0D890A3
:1016480019361B2A070E1B64EAD79388938C0A0E57
:10165800A3EC0EF0000E81B8010E1A6E0A0EA3EC70
:101668000EF0939C190EA3EC0EF01A501200000114
:10167800A091A093A0950F0EA26F820EA16F020EEB
:10168800A36FA46BA56B4290429242940F0E446ED6
:10169800820E436E010E456E466A476AA691A6936E
:1016A800A6950F0EA86F820EA76FA96BAA6BAB6BDE
:1016B800A00E606F420E616FA60E626F120034C0FA
:1016C80020F035C021F036C022F037C023F016C014
:1016D80018F017C019F0000E19BEFF0E1A6E1B6E17
:1016E8002050345C1C6E215035581D6E22503658DF
:1016F8001E6E235037581F6E18501C5C19501D5809
:101708001A501E581B501F58D8B01200E0D700EED0
:1017180060F0500EEE6AE806FDE1486A00EE34F02B
:10172800140EEE6AE806FDE15E0EF66E1D0EF76E0B
:10173800000EF86E0900F5CFC5F05C0EF66E1D0EB2
:10174800F76E000EF86E0900F5CF49F00900F5CFE5
:101758004AF0000EF86E00015AEF08F0226E1E5093
:10176800080DF35022241F6E070E1F16010E206E5F
:101778001F2A02D0D89020361F2EFCD7201C216E9D
:101788001E50080D2250F324166E000EF420176E1A
:10179800196A080E186E13EC08F016500001910F24
:1017A800D96EDA6A2150DF161200216E1E50080D1C
:1017B800F35021241F6E070E1F16010E206E1F2ADC
:1017C80002D0D89020361F2EFCD71E50080D21506D
:1017D800F324166E000EF420176E196A080E186EA0
:1017E80013EC08F016500001910FD96EDA6A2050F8
:1017F800DF121200216A226A1F501E101BE0010E20
:10180800206E04D0D8901E361F36202A1FAEFAD775
:10181800D890213622361E501C5C1F501D5805E3F7
:101828001E501C5E1F501D5A2180D8901F321E3238
:10183800202EEED721C01CF022C01DF01200126A23
:10184800125000018F08D96EDA6ADF500F6E90C00F
:1018580010F0010E116E102A02D0D8901136102EF9
:10186800FCD711500F1402E08B8801D08B988B861F
:101878000E6A010E0D6E61EC0EF08B96122A0E0E9A
:101888001264DED70E0C17C019F016C018F002D07B
:10189800184A192A18C0F6FF19C0F7FFF86A020E8D
:1018A800F76403D00800F55005D0F6CFE1FFF7CF75
:1018B800E2FFE7500009ECE11650185C166E17506D
:1018C8001958176E12002650251017E0010E276EC2
:1018D80004D0D89025362636272A26AEFAD72550A2
:1018E800235C2650245804E32550235E2650245AAE
:1018F800D89026322532272EF2D723C023F024C0D1
:1019080024F01200080E136E0F6810681350116E41
:10191800126A0F501126105012220001905111180E
:10192800121002E18B8801D08B988B860E6A010E0B
:101938000D6E61EC0EF08B9613061366E5D7120058
:10194800F29ED66AF294C30ED56EF184F28AD10E55
:10195800B36E200EB26EA192810EB16EA292A082D9
:10196800CF6ACE6AB10ECD6E210EC26EC16A960ED6
:10197800C06ED08EF28CF28E960C030E1E6E020E86
:10198800D9EC0BF0040E1E6E020ED9EC0BF0030E10
:101998001E6ED9EC0BF0060E1E6E040ED9EC0BF081
:1019A800050E1E6ED9EC0BF0060E1E6E050ED9EF55
:1019B8000BF0196E19C018F001D0182A1850D96EFA
:1019C800DA6ADF5004E0F9D7182A164A172A16C02F
:1019D800F6FF17C0F7FF1850D96EDA6A0800F5CF7E
:1019E800DFFFDF50D8B41200EFD716C0A9FF18C028
:1019F800A8FFA69EA69CA684000EF2BE010E196E34
:101A0800F29E550EA76EAA0EA76EA682A6B2FED7A4
:101A180019B002D0F29E01D0F28EA6941200F29E66
:101A2800896A8A6A8B6A9268936894687E6A7F6A10
:101A3800C2906D9E6B9EC69A6496616ABD6AAB9EA3
:101A4800689EBA9EBB9E9484948094827F80948C76
:101A58001200176E196A165014E0010E186E03D0A2
:101A6800D8901636182A16AEFBD7D89019361650C5
:101A7800175C03E31650175E1980D8901632182E9B
:101A8800F4D7195012001C6E80EC0EF01C5011ECAB
:101A98000BF000090CE09BEC0EF080EC0EF01C50F3
:101AA80011EC0BF0000903E09BEC0EF0010C9BEC31
:101AB8000EF0000C1A6E1AC01BF006D01B50D96E1F
:101AC800DA6A16C0DFFF1B2A1806D8A019061828DC
:101AD800D8B41928D8B41200F1D716501802F3CF89
:101AE8001AF0F4CF1BF016501902F3501B261750AA
:101AF8001802F3501B261AC016F01BC017F012006C
:101B0800176E080E186E196AD89017341934196EA2
:101B1800D89017361650195C02E31650195E182E25
:101B2800F3D719501200F2BAF2A40BD03FEC0EF022
:101B38000001902B9051090AD8B4906B320ED66EE2
:101B4800F29415C0DAFF14C0D9FF11003450070B06
:101B5800226E020E1E6E2250D9EC0BF0030E1E6E82
:101B68002250D9EC0BF0040E1E6E2250D9EF0BF068
:101B7800166A1650000163EC05F0DF94165063EC0A
:101B880005F0040ED926DE6ADD6A162A020E1664EE
:101B9800F0D7020C900E47EC0DF00009D8A4120003
:101BA80080EC0EF0900E11EC0BF0000E11EC0BF027
:101BB8009BEC0EF0DEEF06F0166A1650910FD96E08
:101BC800DA6A1650810FE16EE26ADFCFE7FF162A64
:101BD8000E0E1664F2D70E0C1B6E0A0E166E1B50F4
:101BE80084EC0DF01A6E0A0E166E1B502DEC0DF0DB
:101BF800100DF3501A241200176A166A196A0F0E8C
:101C0800186E0001910E5EEC0DF060EC09F0E0EF4B
:101C18000DF000F000F000F000F000F000F000F02F
:101C280000F000F000F000F000F0120000F000F00A
:101C380000F000F000F000F000F000F000F000F01C
:101C480000F000F012003A0E776F2F0E7D6FD00E65
:101C580047EC0DF00009D8B42DEC07F01200166A15
:101C680016500001810FD96EDA6ADF6A162A0E0E45
:101C78001664F6D70E0C23EC0CF086EC0CF08B8A6D
:101C88000E6A010E0D6E61EC0EF08B9A1200176E43
:101C980017C016F00F0E161617380F0B0A0DF35053
:101CA8001624120005D00DEC0EF01606D8A0170663
:101CB80017501610D8B41200F6D705D01AEC0EF04B
:101CC8000D06D8A00E060E500D10D8B41200F6D787
:101CD800176E166A03D017041716162A1766FBD74D
:101CE800165012008B968B988B9A94969498949A87
:101CF80033EC0EF0906B12009388938C93980F0E30
:101D0800A3EC0EF0939C190EA3EF0EF016C0A9FFDA
:101D1800A69CA69EA68000F000F0A850120076ECC3
:101D28000EF0A9EC0EF027EC0EF0CEEF0DF0939824
:101D3800938C0F0EA3EC0EF0938800F01200186E2F
:101D480018C016F0176A5CEF0EF08A9C8A98938880
:081D5800938C1200010102004E
:103DEC0000000000011F000001021F000200000083
:103DFC0003000000030000000300000003030000A8
:103E0C00010E110002110E00020A150A03081C080B
:103E1C00031800000104040003100000011804033F
:103E2C00031F111F03021F00031219160311150E95
:103E3C000307041F03171509030E150903110D03BE
:103E4C00031F151F0307051F030A0000011A0000BA
:103E5C0001081400021414000214080002150502D3
:103E6C00030E1716031F091E031F150A030E11114B
:103E7C00031F110E030E1515031E0505030E111D50
:103E8C00031F041F031F00000108100F031F041B56
:103E9C00030F1010031F021F031F011E030E110E30
:103EAC00031F090603061906031F09160312150939
:103EBC0003011F01030F100F031F100F031F081F17
:103ECC00031B041B03031C0303191513031F11000D
:103EDC000203041803111F0002111F00021F1F1FF1
:103EEC000300C030F00CCC3CFC03C3202020004A63
:103EFC00414E00464542004D415200415052004D4A
:103F0C004159004A554E004A554C00415547005303
:103F1C004550004F4354004E4F560044454300203B
:103F2C002020004D4F4E005455450057454E00542F
:103F3C00485500465249005341540053554E002AEF
:103F4C002A5345542054494D452A2A0049542049A6
:103F5C005320002041542000444F4E4500204F4E2A
:103F6C0020004A554E4520005345505420004A55D8
:103F7C004C59200044415445005945415200484F8A
:103F8C0055520046454220004445432000574544C5
:103F9C0020005455452000415547200046524920E9
:103FAC00004A414E20004D4F4E200053554E2000EC
:103FBC004D41522000415052200053415420004F9B
:103FCC004354200054485520004E4F5620004D417C
:103FDC005920004D494E004D4F4E00444159004E62
:103FEC0044200052442000544820005354200043E5
:043FFC00004600007B
:020000040030CA
:0E0000000032011EFF0081FF03C003E0034039
:0200000400F00A
:080000000101010101010101F0
:00000001FF
